:100800000000F000000000FF00000000F000000009
:1008100000003F202020203F202020207F000000DB
:100820000008884828180FE8080808080808000089
:10083000002011090541817F0101050911200000F7
:1008400020202020202020FF2020202020202000E9
:1008500080804020100C0300030C1020408080009A
:1008600040301196909091969090981413503000CB
:10087000040404040444847E0605040404040400FF
:100880000000C038E0000000203C2302022738208E
:100890000000C038E0000000203C2302022738207E
:1008A0001209ED750BFF750C08750D80E4FBFD7FDB
:1008B00001120968750BFF750C08750D907B08E433
:1008C000FD7F01120968750BFF750C08750D00E4BA
:1008D000FB7D027F01120910750BFF750C08750D69
:1008E000207B107D027F01120910750BFF750C082B
:1008F000750D407B207D027F01120910750BFF757D
:100900000C08750D607B307D027F01120910809309
:070A2E00120A7B7F0A7E0023
:100A3500EF1FAC0670011E4C600A7D027CEFDCFEE8
:040A4500DDFC80EC68
:010A4900228A
:100A6400E4F580C2A4D2A3D2A27F0AFE120A35E51D
:070A74008020E7FBC2A22273
:100A7B00AB07120A64C2A4C2A3D2A28B80C2A27F0C
:060A8B000A7E00020A359C
:070A11007583001209C0FF0C
:100A1800AB07120A64D2A4C2A3D2A28B80C2A27F5F
:060A28000A7E00020A35FF
:060AA9004307B8020A7BBE
:060AAF00430740020A7B30
:100A4A00EF1460071460092402800AC2A5D2A62204
:0A0A5A00D2A5C2A622C2A5C2A622A0
:1009ED00120A64120A31E4FF120A4A120A317F0117
:1009FD00120A2E7F0C120A2E7F06120A7B7F0A7EA8
:040A0D0000020A35A4
:040910008D098B0AB8
:10091400E4F50E120A4AAF09120AA9AF0A120AAF85
:10092400E4F50EAB0BAA0CA90D850E82120A110573
:100934000EE50EC3941040EBE50904FF120AA9AFBB
:100944000A120AAFE4F50E7410250EF582E433F5AD
:1009540083AB0BAA0CA90D120A14050EE50EC39461
:030964001040E45C
:01096700226D
:0C0A91007F01120A7B7F017E00020A3503
:040968008D098B0A60
:10096C00E4F50E120A4AAF09120AA9AF0A120AAF2D
:10097C00E4F50EAB0BAA0CA90D850E82120A11051B
:10098C000EE50EC3940840EBE50904FF120AA9AF6B
:10099C000A120AAFE4F50E7408250EF582E433F55D
:1009AC0083AB0BAA0CA90D120A14050EE50EC39409
:0309BC000840E40C
:0109BF002215
:03000000020A9D54
:0C0A9D00787FE4F6D8FD75810E0208A0F9
:1009C000BB010CE58229F582E5833AF583E02250EC
:1009D00006E92582F8E622BBFE06E92582F8E22236
:0D09E000E58229F582E5833AF583E4932250
:00000001FF
