:040866007F327E005F
:10086A00E4FDFCC3ED9FEC9E5015E4FBFA0BBB00C4
:0F087A00010AEB64784A70F50DBD00010C80E4B3
:01088900224C
:100800007580FEE59020E12C120866E59020E12439
:10081000E59030E1FB1208660508E508C39408403E
:1008200003E4F508AF087401A807088002C333D8B1
:10083000FCF4F580E59020E0CA120866E59020E01F
:10084000C2E59030E0FB120866E508700575080700
:1008500080021508AF087401A807088002C333D8C6
:06086000FCF4F580809D10
:0300000002088A69
:0C088A00787FE4F6D8FD758108020800B4
:00000001FF
