:040866007F327E005F
:10086A00E4FDFCC3ED9FEC9E5015E4FBFA0BBB00C4
:0F087A00010AEB64784A70F50DBD00010C80E4B3
:01088900224C
:1008000075A0FEE5B020E12C120866E5B020E124D9
:10081000E5B030E1FB1208660508E508C39408401E
:1008200003E4F508AF087401A807088002C333D8B1
:10083000FCF4F5A0E5B020E0CA120866E5B020E0BF
:10084000C2E5B030E0FB120866E5087005750807E0
:1008500080021508AF087401A807088002C333D8C6
:06086000FCF4F5A0809DF0
:0300000002088A69
:0C088A00787FE4F6D8FD758108020800B4
:00000001FF
