:040864007F327E0061
:10086800E4FDFCC3ED9FEC9E5015E4FBFA0BBB00C6
:10087800010AEB64784A70F50DBD00010C80E42292
:100800007580FEE59020E12C120864E59020E1243B
:10081000E59030E1FB1208640508E508C394084040
:1008200003E4F508AF087401A807088002C333D8B1
:10083000FCF4F580E59020E0CA1164E59020E0C367
:10084000E59030E0FB1164E508700575080780024B
:100850001508AF087401A807088002C333D8FCF458
:04086000F580809F00
:030000000208886B
:0C088800787FE4F6D8FD758108020800B6
:00000001FF
