:10089900717771203E5F3C2000282D5F2D292F2F75
:0408A9007C2D7C0026
:0608AD00C2A18F80D2A25F
:0808B3007F0C7EA9DEFEDFFCD4
:0108BB00221A
:0A08C800C2A01208ADC2A20208B3DC
:0A08D200D2A01208ADC2A20208B3C2
:10086F00AE07BE0104ED148006BE0209ED243F441D
:06087F0080FF1208C822F0
:100885007F381208C87F0C1208C87F061208C87F77
:04089500010208C88C
:06082D008B088A09890A0C
:1008330012086FE4FDAB08AA09A90A8D827583002B
:0C084300120800FF60061208D20D80E9C8
:01084F002286
:100850001208857BFF7A0879997D047F0112082DA3
:0F0860007BFF7A0879A27D047F0212082D80FEAB
:030000000208BC37
:0C08BC00787FE4F6D8FD75810A02085030
:10080000BB010CE58229F582E5833AF583E02250AD
:1008100006E92582F8E622BBFE06E92582F8E222F7
:0D082000E58229F582E5833AF583E4932211
:00000001FF
