:0908EB00C0F9A4B0999282F880D2
:0608F400010800010900EB
:0808D9007F0C7EA9DEFEDFFCAE
:0108E10022F4
:0808E2007F027E21DEFEDFFC37
:0108EA0022EB
:1008BA00AD07AC06ED1DAE0470011C4E60051208B2
:0408CA00D980F122BE
:10088C000509E509B409037509017590FFE509141B
:10089C00FF7401A807088002C333D8FCF4F590E577
:0E08AC00099008EB93F5807F647E000208BA85
:0B08CE00E4F5807590FF12088C80FBA1
:03000000020800F3
:0C080000787FE4F6D8FD758109020847F6
:10080C000208CEE493A3F8E493A34003F68001F22C
:10081C0008DFF48029E493A3F85407240CC8C333ED
:10082C00C4540F4420C8834004F456800146F6DFBC
:10083C00E4800B01020408102040809008F4E47E50
:10084C00019360BCA3FF543F30E509541FFEE493B1
:10085C00A360010ECF54C025E060A840B8E493A378
:10086C00FAE493A3F8E493A3C8C582C8CAC583CAA3
:10087C00F0A3C8C582C8CAC583CADFE9DEE780BE5B
:0108FA0000FD
:00000001FF
