:03000000020800F3
:0C080000787FE4F6D8FD758112020847ED
:0F08EA000112000A08C0F9A4B0999282F8809018
:0808FA007F0C7EA9DEFEDFFC8D
:0109020022D2
:1008D600AD07AC06ED1DAE0470011C4E6005120896
:0408E600FA80F12281
:03000300020903EC
:03090300051232A8
:1008B200AB0575900274082FF8E6F5807F057E007F
:1008C2001208D675900174082BF8E6F5807F057E34
:0408D200000208D642
:10088C00D288D2A8D2AFE51275F00A8475F00A842A
:10089C00AFF0E51275F00A84ADF01208B27F057E58
:0608AC00001208D680E0F6
:10080C0002088CE493A3F8E493A34003F68001F26E
:10081C0008DFF48029E493A3F85407240CC8C333ED
:10082C00C4540F4420C8834004F456800146F6DFBC
:10083C00E4800B01020408102040809008EAE47E5A
:10084C00019360BCA3FF543F30E509541FFEE493B1
:10085C00A360010ECF54C025E060A840B8E493A378
:10086C00FAE493A3F8E493A3C8C582C8CAC583CAA3
:10087C00F0A3C8C582C8CAC583CADFE9DEE780BE5B
:0108F90000FE
:00000001FF
