:100A0400C2A7C2B1D2B6D2B0C2B7758902758CC8BA
:0A0A1400758AC8D2AFD2A9D28C2295
:03000B00020A3CAA
:030A3C00B2B13222
:1009C200E4FDFCFBFAC3EB9FEA9E5017C3ED947D56
:1009D200EC940050070DBD00010C80F00BBB000130
:0309E2000A80E2A6
:0109E50022EF
:1009E600C2A7D2B7D2B67F017E001209C2C2B61222
:0D09F60009C2D2B630B0FDC2B7AF807E009E
:010A030022D0
:0A0A2D00C0F9A4B0999282F88090FD
:04080000AB07AA0692
:100804007C007D331209478E088F097C007D0AAF76
:1008140003AE021209357D331209477C007D0A12AA
:1008240009478C0A8D0BAE02AF037C007D6412096C
:10083400357D331209477C007D0A1209478C0C8DE3
:100844000DC2A0D2A1D2A2D2A3E4F5907F02FE12DF
:1008540009A2D2A0C2A1D2A2D2A3742D2509F582E5
:10086400740A3508F583E493547F12099CD2A0D20C
:10087400A1C2A2D2A3742D250BF582740A350AF500
:1008840083E49312099CD2A0D2A1D2A2C2A3742D54
:10089400250DF582740A350CF583E493F5907F02F7
:0508A4007E000209A224
:06099C00F5907F027E00D1
:1009A200E4FDFCC3ED9FEC9E5015E4FBFA0BBB008B
:0F09B200010AEB647D4A70F50DBD00010C80E475
:0109C1002213
:040A3700020E0000AB
:0F0A1E00120A041209E68E0E8F0F12080080F4E0
:030000000208A94A
:0C08A900787FE4F6D8FD75810F0208F09E
:10093500EF8DF0A4A8F0CF8CF0A428CE8DF0A42ED6
:02094500FE2290
:10094700BC000BBE0029EF8DF084FFADF022E4CC94
:10095700F875F008EF2FFFEE33FEEC33FCEE9DEC5D
:10096700984005FCEE9DFE0FD5F0E9E4CEFD22EDA3
:10097700F8F5F0EE8420D21CFEADF075F008EF2FED
:10098700FFED33FD4007985006D5F0F222C398FDDE
:050997000FD5F0EA227B
:1008B500020A1EE493A3F8E493A34003F68001F231
:1008C50008DFF48029E493A3F85407240CC8C33344
:1008D500C4540F4420C8834004F456800146F6DF13
:1008E500E4800B0102040810204080900A37E47E62
:1008F500019360BCA3FF543F30E509541FFEE49308
:10090500A360010ECF54C025E060A840B8E493A3CE
:10091500FAE493A3F8E493A3C8C582C8CAC583CAF9
:10092500F0A3C8C582C8CAC583CADFE9DEE780BEB1
:010A3B0000BA
:00000001FF
