:03000000020800F3
:0C080000787FE4F6D8FD75810A020847F5
:03096500010A0480
:04092F007F057E00C2
:10093300E4FDFCC3ED9FEC9E5015E4FBFA0BBB00FA
:0F094300010ABA04F8BBFBF50DBD00010C80E4FE
:010952002282
:10088C0020900C12092F209006750A013090FD2043
:10089C00910C12092F209106750A023091FD2092BD
:1008AC000C12092F209206750A033092FD20930C2E
:0D08BC0012092F209306750A043093FD22C7
:0408C900AD07AC06C5
:1008CD00AF0A7E001209538E088F09900000C3E510
:1008DD00829509E5839508501C75A0FF7F017E0068
:1008ED0012093363A0FFC37405950AFFE49EFE123F
:0508FD000933A380D9BE
:0109020022D2
:100903007590FFE4F5A07F14FE1208C98008120851
:100913008CE5A0B4FF0575A0FE80F3E5A025E044B7
:0C09230001F5A07F147E001208C980E2DC
:10080C00020903E493A3F8E493A34003F68001F2F6
:10081C0008DFF48029E493A3F85407240CC8C333ED
:10082C00C4540F4420C8834004F456800146F6DFBC
:10083C00E4800B0102040810204080900965E47EDE
:10084C00019360BCA3FF543F30E509541FFEE493B1
:10085C00A360010ECF54C025E060A840B8E493A378
:10086C00FAE493A3F8E493A3C8C582C8CAC583CAA3
:10087C00F0A3C8C582C8CAC583CADFE9DEE780BE5B
:01096800008E
:10095300EF8DF0A4A8F0CF8CF0A428CE8DF0A42EB8
:02096300FE2272
:00000001FF
