:03000000020800F3
:0C080000787FE4F6D8FD758109020847F6
:06096E000109040108FE6E
:040921007F147E00C1
:10092500E4FDFCC3ED9FEC9E5015E4FBFA0BBB0008
:0F093500010ABA04F8BBFBF50DBD00010C80E40C
:010944002290
:1008E40020B00C12092120B00675090130B0FD209A
:1008F400B10C12092120B10675090230B1FD20B2F4
:100904000C12092120B20675090330B2FD20B30C84
:0D09140012092120B30675090430B3FD223D
:10088C00900000E50924FE601B14602714603524D9
:10089C0003703B8508A07F017E0012092575A0FF1F
:1008AC007F0380278508A07F027E0012092575A092
:1008BC00FF80188508A07F037E0012092575A0FF14
:1008CC007F0180078508A07F047E00120925A3E51F
:0708DC00826464458370ACE7
:0108E30022F2
:10095C00E508B4FF047508FE22E50825E04401F51E
:02096C0008225F
:100945007590FFE4F5A012088C75A0FE1208E4125C
:07095500088C12095C80F51B
:10080C00020945E493A3F8E493A34003F68001F2B4
:10081C0008DFF48029E493A3F85407240CC8C333ED
:10082C00C4540F4420C8834004F456800146F6DFBC
:10083C00E4800B010204081020408090096EE47ED5
:10084C00019360BCA3FF543F30E509541FFEE493B1
:10085C00A360010ECF54C025E060A840B8E493A378
:10086C00FAE493A3F8E493A3C8C582C8CAC583CAA3
:10087C00F0A3C8C582C8CAC583CADFE9DEE780BE5B
:010974000082
:00000001FF
