:0308F300010AC82F
:1008BE001208FC758902E50AF404F58CF58AD28CCF
:0B08CE00D2B9D2A9D2AF12088C80FB77
:03000B000208D90F
:0F08D900C0E0E50AF404F58CF58A0509D0E03299
:0508F600C10001090032
:10088C00E5096414702BF509200013F508AF081264
:10089C0008E80508E508D3941440F2D20022750844
:1008AC0013AF081208E81508E508C3940050F2C20B
:0108BC00003B
:0108BD002218
:0708FC00D290D291D29222AA
:0B08E800C290C2918F80D291D290226A
:03000000020800F3
:0C080000787FE4F6D8FD758120020847DF
:10080C000208BEE493A3F8E493A34003F68001F23C
:10081C0008DFF48029E493A3F85407240CC8C333ED
:10082C00C4540F4420C8834004F456800146F6DFBC
:10083C00E4800B01020408102040809008F3E47E51
:10084C00019360BCA3FF543F30E509541FFEE493B1
:10085C00A360010ECF54C025E060A840B8E493A378
:10086C00FAE493A3F8E493A3C8C582C8CAC583CAA3
:10087C00F0A3C8C582C8CAC583CADFE9DEE780BE5B
:0108FB0000FC
:00000001FF
